:100000000C9441040C9469040C9469040C946904E4
:100010000C9469040C9469040C9469040C946904AC
:100020000C9469040C9469040C94E30E0C94550F21
:100030000C9469040C9469040C9469040C9469048C
:100040000C9469040C9469040C9469040C9469047C
:100050000C9469040C9469040C9469040C94820651
:100060000C9469040C9469040C9469040C9469045C
:100070000C9469040C9469040C9469040C9469044C
:100080000C9469040C9469040C9469040C9469043C
:100090000C94B91C0C9469040C9469040C946904C4
:1000A0000C9469040C9469040C9469049D17A017BE
:1000B0008F1793179917C117C117C117A417A8173E
:1000C000AC17B217B617C117BC17080B0002020213
:1000D00001000904000001020200000524001001D3
:1000E0000524010101042402060524060001070578
:1000F000810310004009040100020A000000070506
:1001000002024000000705830240000004030904C6
:1001100012010002EF02014041233680000101027A
:10012000030141726475696E6F204C4C4300555356
:100130004220494F20426F617264005F0002020357
:1001400003030404050700FF06FF06000112022F47
:10015000032C200500BD012106B1B1192922075B3E
:10016000B7495600230A2DB1AB86AA86AA00240AF5
:100170002DB15B35D820A505250934B1C920F60677
:100180000126092CB18B29563105270599B7192865
:100190000772B153CD00290872B189A952002A070C
:1001A0006BB149D56A2B0A2DB1CD280E9951042C7B
:1001B000075BAF5325002D060CB519012E0652B171
:1001C00019012F0724B307B10D300873B1AB5C15CB
:1001D00000310773B14BB235320A34B15331835811
:1001E0008E00330B34B11919248D645200340A3453
:1001F000B18DAA1A318304350A34B1191A6C2493CB
:1002000002360A34B15319AC289302370B34B119B2
:1002100019C40C620611380A34B15331A92893026B
:10022000390A34B15351A60D92023A076AB11971D5
:10023000043B0833AFB3912A013C086BB14D35C87C
:10024000203D081CB319198D003E096BB1C92083EC
:1002500054023F0973B16BA60C1300400934B1532B
:1002600051DD4801410934B153518E2903420A340A
:10027000B15971A4284702430B34B15351830C6226
:100280005200440934B159D1391200450B34B11927
:100290001AAC0C321801460B34B1191AAC0C32C826
:1002A00000470A34B153518334D300480834B1892C
:1002B000724C33490773B159B1354A0B34B1071940
:1002C0006490814C0A4B0A34B1892A4999CA004C7E
:1002D0000C34B1C920830C32C860044D0934B18993
:1002E000E38866004E0834B1896BA9334F0934B1F5
:1002F00053D1991400500A34B159518E944106518A
:100300000A3CAF53D15C49A300520934B159518E14
:10031000D40C530A34B1533165542605540773B1D4
:1003200059B10B550834B1899E4901560934B18938
:10033000CE241500570934B189E6386200580A34D2
:10034000B1893249156500590873B1495659015AA6
:100350000A34B11919C43618015B0773B119B139E0
:100360005C0924B3C928A38C025D0773B199CD1130
:100370005E0553B96B5F060CB11901600652B9896D
:1003800001610824B11B51A902620B34B1C9208359
:1003900015E54800630723B19B1908640A34B107C7
:1003A00019A411651A650924B1536964A00066098E
:1003B00034B1ADCA99410467092CAF1B31A98C0631
:1003C000680A34B1C9208315CD00690873B1CB48E0
:1003D00056036A097BAFCDB05415006B0B34B1C91D
:1003E000208394642A036C0773B1915D036D082424
:1003F000B1496948196E0724B159D10C6F0824B16D
:100400005351260570092CAF59518E940171092C56
:10041000AF1B51A60D02720824B15951830C730809
:1004200024B11B1A0D05740A34B1CB20CE0C321244
:10043000750724B189661A760763B14956057707AF
:1004400024B189721C780824B18949AA1879092C29
:10045000AF89329525007A0824B119B11C017B08B7
:1004600073B14D49D6207C05B1B1397D0A73B1C94C
:1004700020AA9822007E0714B94B2A01000000042C
:10048000FFFF00005F0002020304030404050800EC
:10049000FF06FF06000126024D03582005007E03DB
:1004A0002107316333520022079B6E93AC00230D6A
:1004B0003D6257A634543554991200240D3D629B79
:1004C000C1AAC106296D10012508AB661353670048
:1004D000260A3C621753B36AA6002705196F332812
:1004E00007B262A79A012908B2621353A5002A0A2B
:1004F0002C6213931A49C5002B0A2D629B511C32A2
:10050000A3082C079B5EA74A002D060C6A33022E17
:10051000079B5E9756022F0A34620F32886D900156
:100520003008B36257B92A003107B36297646B325F
:100530000B3462A7620649653002330A34623362C3
:10054000D4482605340A34621B5535620609350A3B
:1005500034623334D8482605360A3462A7325851FB
:100560002605370C346233328819C40C2200380A4D
:100570003462A76252512605390A3462A7A24C1B85
:1005800024053A07AA6233E2083B08B35E672355A5
:10059000023C09B3629BCA0C32083D081C66333228
:1005A0001A013E0AB3629341063195003F09B362D6
:1005B000D74C192600400C455E2BA35C49255943B6
:1005C0000541093462A7A21C5306420A3462B3E211
:1005D00048518E04430B3462A7A20619C4A40044F8
:1005E000093462B3A2732400450B346233345819C2
:1005F000643002460B346233345819649001470A60
:100600003462A7A2066926054809346213E5986694
:10061000004907B362B3626B4A0A34623733C820B9
:1006200095114B093462135592A9334C0C346293E3
:100630004106196490C1084D09346213C711CD00F9
:100640004E09346213D75867004F093462A7A233AA
:100650002900500A3462B3A21C29830C51093C5E64
:10066000A7A25C6E14520A3462B3A21C29CA0053BA
:100670000A3462A762CAA84C0A5408B362B362176C
:100680000055083462133D930256093462139D49A4
:100690002A005709346213CD71C400580A3462131A
:1006A00065922ACA00590D3562938106A90619651B
:1006B00014015A0A34623332886D30025B07B36228
:1006C0003362735C0C346293414619659441005D5A
:1006D00007B362339B235E069372D7005F060C5EFE
:1006E00033026006927213036108246237A24C033E
:1006F000620B34629341062BCA91006307A36237F1
:100700003310640A34620F324823CA346509246204
:10071000A7D2C84001660934625B95338308670A33
:100720002C5EA762DA202900680A34629341062B06
:100730009A016908B3629791AC066A09BB5E9B6136
:10074000A92A006B0B346293410671A428036C073D
:10075000B36223BB066D092562A35A2AA9026E075C
:100760002462B3A2196F082462A7A24C0A700A2C53
:100770005EB3E248196400710A2C5E3762DA2083A6
:10078000007209246293920D32007308A36237321B
:100790005800740B346297419C19A4980075072483
:1007A0006213CD347607A36293AC0A77092562936E
:1007B000814AAA0B7808246213935431790A2C5E7B
:1007C00013651A3129007A082462336239027B0BDF
:1007D0003C62AB324A1AC58C047C053163737D0CD4
:1007E0003C62A351CC48659424007E071472975450
:1007F0000200000004FFFF000000000000230026AC
:100800000029002C002F0000000000240027002AEF
:10081000002D00300000000000250028002B002ED5
:10082000003100040404040403040502020202046B
:10083000030202020206060606060604040202027B
:1008400004040408020110408040102040804080D1
:100850000802040180402010020110801020404056
:10086000200000000200090F0000030401000C003A
:100870000000000000000000000000000000000078
:10088000C42211241FBECFEFDAE0DEBFCDBF12E0DD
:10089000A0E0B1E0E4E1F7E402C005900D92AA3BCC
:1008A000B107D9F725E0AAEBB2E001C01D92AD3B3C
:1008B000B207E1F714E0C1E4D4E004C02197FE01DF
:1008C0000E947623C034D107C9F70E94241E0C94DD
:1008D00088230C94000080E00895DC011696ED91C9
:1008E000FC91179720E030E040E069E10994DC01D9
:1008F0001696ED91FC91179720E030E040E068E11A
:1009000009949A01DC011696ED91FC911797462FF8
:1009100067E10994462FDC011696ED91FC9117973B
:1009200020E030E066E10994462FDC011696ED9157
:10093000FC91179720E030E065E10994662329F0E7
:100940006A3019F0862F90E008958FEF9FEF089599
:100950000F93DC01D8963C91B8EF3B9F400D1124DA
:10096000FC0131AD213061F4631708F047C022ADBE
:10097000421708F043C001A8F2A9E02D21E03DC0D4
:10098000023019F4621B6F5F04C0033011F4421B84
:100990004F5FDC01DA965C91702F717000FD14C01E
:1009A000451760F5260F261730F4631718F42FEF5C
:1009B000230F03C060E0631708F52223F9F0321714
:1009C00008F4232F261B13C06317C0F4240F241729
:1009D00030F4451718F42FEF250F05C040E04517F8
:1009E00068F4222359F0521708F4252F241BDC0148
:1009F000D196ED91FC91D297072F09950F9108950B
:100A0000CF93DF93FC0127A9822F880F880F880FCF
:100A100082AFA081B18150968C915097803208F0BE
:100A20008FE1880F880F880F81AF30AD932F990F1A
:100A3000990F990F93AF51966C915197432F50E0B6
:100A4000420F511DC62FD0E0C417D50714F4262F2E
:100A5000231B94AF492F38E0239F400D1124242FEE
:100A600045AF30EF36AF54964D915C915597413F6D
:100A7000510508F446AF56963C9137AFDF01A05CB4
:100A8000BF4F1C9211968C9311969C93ED5BFF4F78
:100A90002083DF91CF910895EF92FF920F931F93E0
:100AA000CF93DF93DC01942F9770E1E0F0E0092E03
:100AB00001C0EE0F0A94EAF71E2FED01CF58DF4F69
:100AC0008881823028F47E2F813019F410E001C033
:100AD00070E050E0487FD596ED90FC90D697ED9170
:100AE000FC9111978089849FF001859FF00D11245E
:100AF000E60FF11DEE0DFF1D01110CC02E0F8081C0
:100B0000872B812781932E13FACF1DC0770F110FEA
:100B10002223C9F03081372B312730839F5F9770B4
:100B200021509111F3CFD9968C91D997E80FF11DEF
:100B30008881823020F4813021F011E002C011E080
:100B4000E7CF71E0E5CFDF91CF911F910F91FF903B
:100B5000EF90089580E00895EF92FF920F931F9316
:100B6000CF93DF9300D0CDB7DEB77C01162F042FD3
:100B7000663159F028F46431C9F0653131F027C08D
:100B8000673169F06A3118F511C060E0C7010E9451
:100B9000DA19602FC7010E94CB1981E019C061E00A
:100BA00029833A830E94DA193A812981D70118965C
:100BB000ED91FC911997402F612FC7010F900F9075
:100BC000DF91CF911F910F91FF90EF90099480E0FA
:100BD0000F900F90DF91CF911F910F91FF90EF90A9
:100BE0000895EF92FF920F931F93CF93DF93FC0131
:100BF000EC5BFF4F20813181295E3F4F6F3F7105D4
:100C000009F018F56136710510F0B49606C061342C
:100C1000710538F0FC01EA59FF4F80819181280F5E
:100C2000391FC9010196FC014491442309F43CC0D9
:100C3000F901449150E04617570711F4019636C068
:100C4000FC018491280F311DECCF8B01FC01E6598A
:100C5000FF4FC081D181C20FD31F7E0160E0C70169
:100C60000E944814C80FD91F62E0C7010E944814AF
:100C7000F4E0EF0EF11C8017910780F3FE018491E0
:100C800090E0982F88273196E4918E2B009761F0A1
:100C90008017910719F4CE01039608C0FE01329621
:100CA000E491CE0FD11DEACF80E090E0DF91CF91AB
:100CB0001F910F91FF90EF9008953FB7F8948091A6
:100CC000BF029091C002A091C102B091C20226B5AC
:100CD000A89B05C02F3F19F00196A11DB11D3FBF74
:100CE000BA2FA92F982F8827820F911DA11DB11D02
:100CF000BC01CD0142E0660F771F881F991F4A95FE
:100D0000D1F708951F920F920FB60F9211242F93CF
:100D10003F938F939F93AF93BF938091BB0290912A
:100D2000BC02A091BD02B091BE023091BA0223E094
:100D3000230F2D3720F40196A11DB11D05C026E813
:100D4000230F0296A11DB11D2093BA028093BB020E
:100D50009093BC02A093BD02B093BE028091BF02EB
:100D60009091C002A091C102B091C2020196A11D52
:100D7000B11D8093BF029093C002A093C102B093B3
:100D8000C202BF91AF919F918F913F912F910F9090
:100D90000FBE0F901F901895DC011A96ED91FC91F3
:100DA0001B9720E030E00994EF92FF920F931F937E
:100DB000CF93DF931F92CDB7DEB77C018B01D801B3
:100DC0006C916731E1F078F46531A0F1F80141816F
:100DD0004983D7011696ED91FC91179720E030E0FA
:100DE000C701099524C06A31A8F06E3F19F5F801D2
:100DF0004181498369E2C7010E94CC0618C0F8010D
:100E000081818983AE014F5F5F4F61E0C7010E941E
:100E100081040DC00F5F1F4FD7011696ED91FC9115
:100E2000179720E030E040E0C7010995C8CF0E5F7A
:100E30001F4FC5CF0F90DF91CF911F910F91FF9062
:100E4000EF900895EF92FF920F931F93CF93DF934C
:100E5000EC01142F79016D30A9F118F46B3039F1E0
:100E60005FC06E3009F441C06F3009F059C00E9474
:100E70007704F70183810889F8E08F9F000D112422
:100E800060E4CE010E949404602F62956F706061EF
:100E9000CE010E949404602F6F70CE010E948A04DC
:100EA000F7016481606BCE010E948A0429C0411160
:100EB00003C064E271E002C06FE171E0CE010E9404
:100EC000D40671C0411108C068E171E00E94D406E7
:100ED000E881F981828907C061E171E00E94D4064E
:100EE000E881F9818389888B5EC00E94770461E87C
:100EF000CE010E949404612FCE010E948A040CC08E
:100F0000F701408151816281660F660F660FCE0145
:100F10000E9481041150A1F7CE010E946D0443C0CC
:100F2000693031F48EE591E099838883188A3BC05B
:100F30006A30B9F5EA85FB8520E030E040E068E200
:100F4000CE010995EE81FF8120E030E040E064E1D0
:100F5000CE01099541E06BE4CE010E94CC06E88108
:100F6000F981448169E2CE010E94CC0640E06BE445
:100F7000CE010E94CC06E881F981448169E2CE016C
:100F80000E94CC0641E06BE4CE010E94CC06E881D1
:100F9000F981458169E2CE010E94CC0669E271E0E7
:100FA0008DCF80E001C081E0DF91CF911F910F9143
:100FB000FF90EF9008950F93FC01EE5BFF4F30819F
:100FC00031965081451728F4301730F0041720F07F
:100FD00010C03017D8F30DC0FC01E05CFF4F30812A
:100FE00031968081681738F4321740F081E0261777
:100FF00030F080E004C03217C8F3FBCF81E00F91DE
:1010000008950F93DC01D396ED91FC91D497028063
:10101000F381E02D09950F910895FC01EF58FF4FE2
:10102000633010F46083089581E0808308950F9306
:10103000FC01EE5BFF4F2081421780F0319620814A
:10104000421760F433972081621740F03196208177
:10105000621720F400E021E00E9401080F9108953A
:101060000F9321110E9401080F9108952F923F9232
:101070004F925F926F927F928F929F92AF92BF92A8
:10108000CF92DF92EF92FF920F931F93CF93DF9354
:101090002C017C012EE4E20EF11CD7011C92FC0114
:1010A000158AEB01312C212C8C01085B1F4F3C0170
:1010B000FBE56F0E711C6C012FE6C20ED11C5C01AA
:1010C0008CE5A80EB11C4201ADE58A0E911C699118
:1010D000D2011296ED91FC911397C20109958F3FB1
:1010E000BFEF9B0721F18E3FEFEF9E0781F3BC011D
:1010F000C2010E94F1050097B1F0BC01C2010E943B
:101100001114D3016C91C8010E943A14F601808336
:10111000D5016C91C8010E943A14F4016081C801A4
:101120000E943A1401C080E0382E280ED0CFD7019B
:101130009C91992339F0F201E159FF4F8081890F89
:10114000280E2318822DDF91CF911F910F91FF90D0
:10115000EF90DF90CF90BF90AF909F908F907F9057
:101160006F905F904F903F902F900895CF92DF92B5
:10117000EF92FF920F931F93CF93DF936C0124E4C0
:10118000C20ED11CD6012D913C911197261737071D
:1011900009F4BCC0EB017C016D937C93FB0184914D
:1011A00087010B5A1F4FD8018C933196E491119609
:1011B000EC931197FB013296E4911296EC931297FF
:1011C000FB013396E4911396EC931397FB0134964D
:1011D000E4911496EC931497FB013596E4911596DF
:1011E000EC931597FB013696E4911696EC931697BF
:1011F000FB013796E4911796EC931797FB0138960D
:10120000E4911896EC931897FB013996E49119969E
:10121000EC931997FB013A96E4911A96EC931A977E
:10122000FB013B96E4911B96EC931B97FB013C96CC
:10123000E4911C96EC931C97FB013D96E4911D965E
:10124000EC931D97FB013E96E4911E96EC931E973E
:10125000FB013F96E4911F96EC931F97FB0170965C
:10126000E4915096EC9361E1CE010E944814F8019C
:10127000928B818B63E1CE010E944814D801549671
:101280009C938E93539765E1CE010E944814F80118
:10129000968B858BD6018D919C911197892BB1F1FD
:1012A0003D968081E701C359DF4F888331964081A5
:1012B0009A964C9339969081992341F1913069F433
:1012C0003897908189170CF49883F701EB59FF4FF9
:1012D00080818417DCF48C9319C0F701E15AFF4F29
:1012E000308132962081082E000C990B622F022E3D
:1012F000000C770B630F711D37FD7A9586179707E2
:1013000014F4320F388324170CF42C93DF91CF910F
:101310001F910F91FF90EF90DF90CF9008956F9203
:101320007F928F929F92AF92BF92CF92DF92EF9275
:10133000FF920F931F93CF93DF931F92CDB7DEB72A
:101340003C01062F142F7901FC01EC5AFF4F8081DC
:101350008130C9F070F0823001F1833039F5F3014A
:10136000EA5BFF4F0190F081E02DC3010995080F62
:101370001DC0F301EA5BFF4F0190F081E02DC30136
:101380000995180F13C0F301EA5BFF4F0190F0813C
:10139000E02DC3010995081B09C0F301EA5BFF4F6B
:1013A0000190F081E02DC3010995181BF301E65B64
:1013B000FF4F008331961083B701C3010E94F105EE
:1013C000009709F49CC0730128E4E20EF11CBC01F3
:1013D000C3010E941114F301E15BFF4FD0803C96E2
:1013E0006081C7010E943A14A82EF301E45AFF4F0E
:1013F0006081C7010E943A14C82EF301E35AFF4FDF
:101400006081C7010E943A14B82EF70106811016B8
:101410000CF073C09485CD0CC194292F4C2D6A2DEE
:10142000828199830E947013182FF701828399811A
:10143000292F4C2D6A2D83810E947D13482FF7019F
:1014400083839981913091F060F09230A1F09330D4
:10145000E9F4212F2D0D801B01E0040F41E0480F1E
:1014600017C0212F200F082F0D0D12C09D1921E04C
:10147000210F080F09C081E0982F901B21E0210F58
:101480008D1901E0040F480F190F02C0082F212FFA
:10149000612FC3010E94DB07882379F1F7011482D1
:1014A00015828301095A1F4F4301F8E58F0E911CE5
:1014B000F8016081C7010E94E313A82EF401608146
:1014C000C7010E94E313C82E40E06A2DC3010E94A9
:1014D0008A1341E06C2DC3010E948A1361E0C701A9
:1014E0000E94E3138111F0CFF70185818D1504F37C
:1014F000D301AF58BF4F82858C938B2D01C080E004
:101500000F90DF91CF911F910F91FF90EF90DF909F
:10151000CF90BF90AF909F908F907F906F900895E5
:10152000AF92BF92DF92EF92FF920F931F93CF93F0
:10153000DF93EC01162F042F1D8A7901D12C5C0159
:1015400024E5A20EB11CF70161917F01EA81FB81C4
:10155000CE0109958F3FFFEF9F07E1F08E3F2FEF00
:10156000920789F39C01402F612FCE010E948F09C1
:10157000F5012081213049F030F0223041F0233054
:1015800039F4081B05C0180F03C0080F01C0181B51
:10159000D80ED9CF8D2DDF91CF911F910F91FF9054
:1015A000EF90DF90BF90AF9008959091CE02692F99
:1015B00070E089E0989FA00111244D5B5C4F9C3046
:1015C00018F49F5F9093CE0289E0869F9001879FD9
:1015D000300D112423533D4FF901E458FF4F809102
:1015E0000F03808331968091100380833196809120
:1015F00011038083CA0108951092CE020895EFEC82
:10160000F2E080E48E0F11928E13FDCF1092CD0286
:10161000109212038FEF80930F03809310038FE0DB
:101620008093110310921403109215030C94FC0A7A
:10163000E82FE07FE6958F708E2BE82FF0E0E353E4
:10164000FD4F62830895E0911E03F0911F032581F1
:101650003681281739072CF496838583808183830C
:1016600064830895E0911E03F0911F0381E090E8E8
:10167000968385838FEF838384830895ECE1F3E081
:1016800080818150808327E0829FC0011124805E89
:101690009C4F90931F0380931E03089520911C0379
:1016A00090911D032917B1F02F5F20931C0397E041
:1016B000299F90011124A901405E5C4F50931F03A4
:1016C00040931E03F901EE5DFC4F91E08927808372
:1016D00081E0089580E00895CF92DF92EF92FF922B
:1016E0000F931F93CF93DF936C01EB017B01E40E0B
:1016F000F51E00E010E0CE15DF0561F06991D6011E
:10170000ED91FC910190F081E02DC6010995080F43
:10171000191FF1CFC801DF91CF911F910F91FF9059
:10172000EF90DF90CF900895089580E090E00895C5
:101730000F931F93CF93DF93EC018C010C5F1F4F2E
:10174000FC01E958FF4F0190F081E02DC801099597
:101750008E3F2FEF920780F4FE01E658FF4FC758E7
:10176000DF4F9C0140816881C8010E948F09288158
:1017700090E0820F911D888381E090E0DF91CF910E
:101780001F910F910895DF92EF92FF920F931F9395
:10179000CF93DF93D82E8A017B01E40EF51EEB0177
:1017A000CE15DF0571F0D7FE03C0FE01849101C0A4
:1017B00088810E94411B21968111F2CF8FEF9FEF0C
:1017C00001C0C801DF91CF911F910F91FF90EF9061
:1017D000DF9008950F931F93CF93DF931F92CDB7A0
:1017E000DEB782E0898342E450E06AEC70E080E892
:1017F0000E94C30B0E94E419DC0112960D911C910A
:1018000013970115110569F0D801ED91FC91028043
:10181000F381E02DBE016F5F7F4FC801099597FFEF
:1018200007C089810F90DF91CF911F910F9108958B
:10183000F80100851185E5CFFC01962F9F709F5917
:10184000908365956595659565956F5C6183089551
:101850000F931F93CF93DF93C091CE02CC2309F453
:1018600045C0C150C093CE020C2F10E089E0C89F44
:10187000E0011124C353DD4FFE01E458FF4F808186
:1018800080930F033196808180931003319680817D
:1018900080931103DE01AA58BF4F37976C91808166
:1018A0000E94180BFE01E858FF4F60E080810E9403
:1018B000180BFE01E658FF4F80818F3F29F0C75873
:1018C000DF4F68810E94180B89E0809FF001819FA3
:1018D000F00D1124E85BFC4F80818F3F39F060E010
:1018E000DF91CF911F910F910C94180BDF91CF9145
:1018F0001F910F910895CF93DF9399E08091CE02CD
:10190000873020F120E0C82FD0E0622F70E0AB01DB
:101910004E5F5F4F4C175D07ACF4969FD001979FC9
:10192000B00D1124AD5BBC4F949FF001959FF00D5D
:101930001124ED5BFC4F392F01900D923A95E1F7A0
:101940002F5FE3CF82508093CE02D8CFDF91CF912B
:1019500008950E94FF0AEFEFF2E021E091E188E0B4
:101960008E0FDF0198972C9391938E13FACF84E01A
:101970008093CF0292E09093D00223E02093D10293
:1019800035E03093D20236E03093D3022093D40274
:101990009093D5028093D60284E18093070392E16D
:1019A0009093080323E12093090335E130930A0360
:1019B00036E130930B0320930C0390930D03809337
:1019C0000E030895E82FE07FE6958F708E2BE82FA9
:1019D000F0E0E353FD4F82810895CF92DF92EF92C2
:1019E000FF920F931F93CF93DF93082FC62E0E9471
:1019F000D50A7C01802F0E94E20CD82E8C2D0E94EB
:101A0000E20CF701D0820183C2828383C4829FEFFC
:101A10009583ED2DEF70E13009F045C0402F50E087
:101A20002C2D30E0BA01621B730B6032710531F06E
:101A3000B901641B750B6032710561F4D4FAFF279C
:101A4000F0F9CF2F80E0D82FC353DD4FCE5BDF4FAF
:101A5000C8826EC0B90194E0759567959A95E1F7D3
:101A60006115710519F06730710521F4ED2DE56000
:101A7000DE2E5EC0240F351F20FF5AC08F7009F084
:101A800057C0D4FA882780F9E827F0E0E15FFC4FDF
:101A9000C081F701C4838C2F0E94E20CF70183837D
:101AA00010E0DFEF48C0E63041F580911103D4FC2F
:101AB00002C08C7001C0837080931103202F30E02E
:101AC0008C2D90E0A901481B590B4230510521F49F
:101AD000DFEFD00FCCEF07C0821B930B029741F5CD
:101AE000D1E0D00FC3E0C00F8C2F0E94E20C182F62
:101AF000F7018383C483D5831EC0E430C9F4011188
:101B000004C0809111038E7F11C0073021F48091B1
:101B100011038D7F0BC0003721F4809111038B7F5F
:101B200005C0073729F480911103877F8093110343
:101B300010E0DFEFCFEF6D2D8C2D0E94180BDF3FF3
:101B400021F0612F8D2F0E94180B60E0802F0E94E2
:101B5000180BCF3F61F060E08C2FDF91CF911F9188
:101B60000F91FF90EF90DF90CF900C94180BDF91C6
:101B7000CF911F910F91FF90EF90DF90CF9008953C
:101B8000982F81E0890F83FF03C081E1890F807F57
:101B900087FD80E008956F927F928F929F92AF921F
:101BA000BF92CF92DF92EF92FF920F931F93CF934A
:101BB000DF9300911E0310911F03F801D281C82FFB
:101BC000C87851F4F82E0E94E20C882339F08295EF
:101BD0008170D81303C0CEC0C0E0CCC06F2DF80117
:101BE00080810E94ED0CE0911E03F0911F03828121
:101BF0000E944E0B882381F00E94320B0E941C161B
:101C0000E0911E03F0911F03C581D681D195C19546
:101C1000D1090E943E0B2EC080901E0390901F039E
:101C2000C0E0A12CB12C00E010E0612C712CC12C83
:101C3000D12CE12CD0E08C2F0E94E20C982F9F70C9
:101C400009F03FC08C2F0E94C00DC82F8111F3CF27
:101C5000DD2309F45BC0EE2009F45BC0E601C61980
:101C6000D70933E0CC0FDD1F3A95E1F70A191B09BC
:101C7000C00FD11F6F2DCE010E94230B0E94280C94
:101C8000C0911703CC23D9F0E0911E03F0911F03FC
:101C9000C13031F46181606280810E94180B6AC09A
:101CA000C23069F4908180911603981308C08F2D7B
:101CB0000E94E20C682F60628F2D0E94180BC1E019
:101CC00059C082958170F4015281292F30E04FEF85
:101CD000490F58130DC0963009F4D1E0F901EB57C4
:101CE000FE4F8081C80ED11C423008F0ABCF14C02B
:101CF000963011F4EE24E394F901EB57FE4F808106
:101D0000680E711C423008F09DCF1DC0C1E0D0E8C4
:101D1000B1CFCFEFDFE7AECFEC2FE770F0E0E358C5
:101D2000FE4F9081EC2FF0E024E0F595E7952A95A1
:101D3000E1F7E770FF27E358FE4F8081989F000D81
:101D4000111D11247FCFEC2FE770F0E0E358FE4F18
:101D50009081EC2FF0E084E0F595E7958A95E1F726
:101D6000E770FF27E358FE4F8081989FA00CB11CBD
:101D7000112468CF8C2FDF91CF911F910F91FF908D
:101D8000EF90DF90CF90BF90AF909F908F907F901B
:101D90006F900895CF93DF9310921C03CEE1D3E0B0
:101DA00020E233E03983288380931D0310921703C8
:101DB0000E94320BE881F9818091CD02817082838B
:101DC000DF91CF9108951F920F920FB60F921124B9
:101DD0008F939F938091E1009091E100937F909386
:101DE000E10083FF0FC01092E90091E09093EB00B7
:101DF0001092EC0092E39093ED001092190498E099
:101E00009093F00082FF20C093E09093E9009091BE
:101E1000F200992319F09AE39093E8009091B803A7
:101E2000992339F09091B80391509093B803992376
:101E300089F190911804992339F0909118049150E8
:101E400090931804992341F184FF10C08091E2001F
:101E50008E7E81608093E2008091E1008F7E80938E
:101E6000E1008091B9038E7E806111C080FF16C0B1
:101E70008091E2008E7E80618093E2008091E1009B
:101E80008E7E8093E1008091B9038E7E8160809385
:101E9000B90304C05D9ACDCF289AD6CF9F918F9178
:101EA0000F900FBE0F901F9018951F920F920FB6B4
:101EB0000F921124CF92DF92EF92FF920F931F9314
:101EC0002F933F934F935F936F937F938F939F9342
:101ED000AF93BF93EF93FF93CF93DF93CDB7DEB76D
:101EE0006C97DEBFCDBF1092E9008091E80083FFC0
:101EF000EDC168E0CE0145960E946F1B82EF809392
:101F0000E8008D8987FF05C09091E80090FFFCCF25
:101F100003C09EEF9093E800982F907609F0C6C01A
:101F20009E892F89188D91110CC0803829F48091D9
:101F3000C8028093F10002C01092F1001092F100EB
:101F400048C1422F50E0512B913051F4811141C1D1
:101F50004130510509F03DC18091C8028D7F0BC011
:101F6000933061F4811135C14130510509F031C11F
:101F70008091C80282608093C8022BC1953041F4E1
:101F80008091E80080FFFCCF20682093E30021C10E
:101F9000963009F05FC0EB8CFC8C1092E900109237
:101FA000C6021092C502123091F51092C40210922E
:101FB000C3020E94EA0B99E0BE016F5F7F4FDB0115
:101FC000E92F1D92EA95E9F799831A8391E09E83A0
:101FD00090EA98879AEF99872091C5023091C602BE
:101FE000275F3F4F3C832B838D831092E900109233
:101FF000C6021092C502F092C402E092C30249E008
:1020000050E080E00E94C30B0E94EA0BE2C0F09215
:10201000C402E092C3020E94E419DC011296ED9022
:10202000FC901397E114F10409F4C0C0D701ED91BD
:10203000FC910480F581E02DBE016B5E7F4FC701EE
:102040000995009719F00CF0C4C0C7C0F701E084EF
:10205000F184E8CF973009F4C0C0983021F481E0D2
:102060008093F100B6C0993009F0B3C0837009F0D5
:10207000B4C0E7E7F1E081E021E036E39081992305
:1020800061F08093E9002093EB0091919093EC0034
:102090003093ED008F5F873089F78EE78093EA00F9
:1020A0001092EA008F898093190493C08B8D9C8DC8
:1020B0001092E9001092C6021092C5029093C402D9
:1020C0008093C302898D811156C08E899D89913A72
:1020D00059F4813209F081C047E050E065E071E0D9
:1020E00080E00E94C30B75C0913209F076C0833244
:1020F00089F4888D90E0982F88272F89822BA0E083
:10210000B0E08093000190930101A0930201B0938D
:1021100003015FC0803269F48091E80082FFFCCF48
:1021200067E085E091E00E946F1B8BEF8093E800F1
:1021300006C0823209F04DC08F8980930C018091D6
:10214000C702882319F0EEEFFAE002C0E0E0F8E001
:102150008091050190910601A0910701B0910801BD
:10216000803B9440A105B10509F07BC080910C0132
:1021700080FF93C076C00E94E419DC0112960D9195
:102180001C9113970115110541F1D801ED91FC91B6
:102190000190F081E02DBE016B5E7F4FC801099573
:1021A000811117C0F80100851185ECCF113009F4B9
:1021B0004EC0133091F48F89882309F445C08230D2
:1021C00081F440E86CE08EE291E00E94E71D8823F4
:1021D00021F08EEF8093E80079C081E28093EB00DC
:1021E00075C0813029F440E86BE082E291E0EDCFE8
:1021F000833099F70E94E419DC011296ED90FC906F
:1022000013978E010F5F1F4F6801E114F10479F0FD
:10221000D701ED91FC910680F781E02DB801C7014F
:102220000995080F111DF701E084F184EECFD80164
:102230001C92F60101900020E9F73197BF016C195B
:102240007D0940E0C601C1CF6CE071E002C060E1F1
:1022500071E06115710509F2FB01449150E080E8DD
:1022600040CF0FB6F894A895809160008861809364
:102270006000109260000FBEA895EE3F2AE0F207C2
:1022800039F08091FE0A9091FF0A91838083A1CF5B
:102290001092FF0A1092FE0A9CCFEE3F8AE0F807E8
:1022A00031F0808191819093FF0A8093FE0A87E745
:1022B00097E7918380839BE088E10FB6F894A89517
:1022C000809360000FBE9093600083CF6C960FB632
:1022D000F894DEBF0FBECDBFDF91CF91FF91EF919C
:1022E000BF91AF919F918F917F916F915F914F912E
:1022F0003F912F911F910F91FF90EF90DF90CF9022
:102300000F900FBE0F901F901895BF92CF92DF9243
:10231000EF92FF920F931F93CF93DF9300D000D0E3
:102320001F92CDB7DEB78C01DC01D796BC90D79752
:10233000D896DC90D897ED91FC91C188E12CF12CD6
:10234000D801ED91FC9111978089D5964D915C91C2
:10235000D6971C829D2D9E0D9D838B83B8E08B9F0D
:10236000C00111248E9D90018F9D300D9E9D300DDA
:102370001124CA01820F931F9A838983D80114966E
:10238000ED91FC9115979E012F5F3F4F41E06FE06B
:10239000C801099581E08E0D8B1538F4BFEFEB1A5B
:1023A000FB0A8D2D8E0D8C1558F20F900F900F900B
:1023B0000F900F90DF91CF911F910F91FF90EF90B1
:1023C000DF90CF90BF900895FC01A081B18150961D
:1023D0009C9147A9949FA001112483E0440F551FAD
:1023E0008A95E1F760E070E085A996A90C948123B5
:1023F000BF92CF92DF92EF92FF920F931F93CF93F2
:10240000DF93EC01162FF42EC22EB02EE42EE00E38
:10241000D62ED20E0E2D2D2D0E94DB078823E9F03B
:1024200000E02C2D4F2D612FCE010E94300801E0DD
:102430002B2D4F2D612FCE010E9430086FEF6D0DB7
:102440002B2D4F2DCE010E9430084FEF4E0D00E096
:102450002C2D612FCE010E943008DF91CF911F916A
:102460000F91FF90EF90DF90CF90BF900895CF93A2
:10247000982F9878D1F4C62F0E94E20C982F9F7065
:10248000913099F484FBEE27E0F9EC130EC0F0E0F4
:10249000E353FD4FDF01A35BBF4F8C918F5F8C93A4
:1024A000E55BFF4F80818F5F8083CF9108958F928E
:1024B0009F92BF92CF92DF92EF92FF920F931F9362
:1024C000CF93DF9300D0CDB7DEB7B82E4A01862F69
:1024D00090E0AC014B575E4F7A01F40101914F013E
:1024E000002359F11B2D100F812F8878B1F7812F10
:1024F0002A8369830E94E20C982F9F702A81698148
:102500009923C1F09613E9CF84FBCC24C0F8D12CD9
:10251000A60143535D4FDA01A35BBF4F8C91F701D6
:102520009081980F9C93FA01E55BFF4F90819F5F2C
:102530009083D3CF2111D7CFD0CF0F900F90DF91C1
:10254000CF911F910F91FF90EF90DF90CF90BF90B0
:102550009F908F900895CF9310921A0310921B03AF
:102560001092180310921903982F9878C1F5C82F6C
:1025700021E04AE951E064E00E94571221E045E978
:1025800051E063E08C2F0E94571221E04FE951E0A7
:1025900065E08C2F0E94571220E04CE851E062E089
:1025A0008C2F0E94571220E04FE951E066E08C2FFB
:1025B0000E94571261E081E18C0F0E94371261E0A6
:1025C0008FE08C0F0E94371260E08FEE8C0F0E941C
:1025D000371260E081EF8C0FCF910C943712CF91BE
:1025E0000895FF920F931F93CF93DF93F62E042F3E
:1025F00090911103892311F480E024C0E0911E031F
:10260000F0911F0310818281C1E0D0E0C81BD10985
:10261000812F0E94AB12FE01FF27E65EFC4F8081F6
:102620008111EACFEF011F0D812F0E94E20C8F7004
:1026300019F7812F0E94AB1288818111DDCF0150E3
:1026400091F781E0DF91CF911F910F91FF90089555
:10265000CF93982F9878F9F4C82F0E94E20C8F70CE
:1026600021F08C2FCF910C94CB0DE0911E03F091B3
:102670001F0382812C2F30E0811105C0809110034F
:1026800090E0409605C080910F0390E0205F3F4F9F
:102690008217930731F3CF9108950F931F93CF9330
:1026A000DF93EC01062F88818823A9F0E0911E03B7
:1026B000F0911F0310818881180F812F0E94CB0D8C
:1026C000882339F0812F0E94E20C8F7011F40111E0
:1026D000F2CF2196E8CFDF91CF911F910F9108950E
:1026E000213039F020F0223031F4861B0895860F16
:1026F0000895841B0895840F0895213039F020F047
:10270000223031F4841B0895840F0895860F0895B4
:10271000861B08955F926F927F928F929F92AF92E5
:10272000BF92CF92DF92EF92FF920F931F93CF93BE
:10273000DF935C01F62E642EEC01C85BDF4F1C8139
:10274000DD804C0181E7880E911CEE80E11ACE2CD1
:10275000FE1408F4CF2C5B800C85202F4D2D612FAB
:102760008A810E947013782E202F4D2D612F852D88
:102770000E947D13482F662011F09A8504C0998528
:10278000911108C09B85F40190832C2D672DC50104
:102790000E943008FE1420F0FE18D39410E0D5CF2C
:1027A0001F0D1C83DD82DF91CF911F910F91FF9050
:1027B000EF90DF90CF90BF90AF909F908F907F90E1
:1027C0006F905F900895DC0118964C911897ED91E9
:1027D000FC911197249130E0042E02C03595279585
:1027E0000A94E2F7862F840F883010F4E22F0EC08F
:1027F00031961196FC93EE939491E92F98E0941BF7
:1028000001C0EE0F9A95EAF7E22B885018968C9348
:1028100081E090E001C0880F6A95EAF781508E232D
:1028200008950F931F93CF93DF938C01EC01C85B46
:10283000DF4F798368831886FC01E75AFF4F608178
:10284000CE010E94E3138E83F801E65AFF4F6081A8
:10285000CE010E94E3138F83F801EF58FF4F908160
:102860009A8781E0911180E08B87DF91CF911F9152
:102870000F910895CF93C62F0E94E313C15021E01A
:1028800030E001C0220FCA95EAF7821BCF9108956C
:10289000FC01E60FF11D849190E0982F8827319676
:1028A000E4918E0F911D0895DC01D8966C93D89712
:1028B000D396ED91FC91D4970190F081E02D09948D
:1028C0000F931F93CF93DF931F92CDB7DEB78C0189
:1028D0000E948511D801D8966C91D897D7968C9183
:1028E000D797680FED91FC9111978189681760F077
:1028F0001496ED91FC91159720E030E040E060E106
:10290000C801099580E00FC0F801EE58FF4F8081A3
:10291000882329F0C80169830E94E4116981C801F4
:102920000E94541481E00F90DF91CF911F910F917D
:102930000895CF93DF93EC01FC01EE58FF4F8081A7
:10294000882319F0CE010E94E41160E0CE01DF91EE
:10295000CF910C945414CF92DF92EF92FF920F9389
:102960001F93CF93DF931F92CDB7DEB7162F982F0B
:102970009F7040911203442311F027E09227282FE3
:1029800030E084E0359527958A95E1F7822F44233E
:1029900011F087E0822720910401929FD02C11240E
:1029A000829FC02C1124E090CB02F090CC0261E019
:1029B000C70129830E940D084091CA024F5F2981F7
:1029C000421B4C19022F6D2DC7010E94F8111123D3
:1029D00089F08091040122E0280F4091CA02481B2F
:1029E0004C196FEF6D0D022F8091CB029091CC02AC
:1029F0000E94F8110F90DF91CF911F910F91FF90DE
:102A0000EF90DF90CF9008954F925F927F928F92D8
:102A10009F92AF92BF92CF92DF92EF92FF920F936D
:102A20001F93CF93DF931F92CDB7DEB7982E5B0134
:102A3000822EE090CB02F090CC0264E874E0C701F3
:102A400049830E94B6088EE994E0F701938382835C
:102A5000B501C7010E943608182FC090CB02D09054
:102A6000CC02F60186AD811B482E512C559447941B
:102A70004981411125C0E090CB02F090CC0261E089
:102A8000C7010E940D08F70147AD415049198EE971
:102A900094E0938382839501642DC7010E94900A7C
:102AA0008820A9F18091CB029091CC02FC0147AD26
:102AB0004950491909E026AD60E00E94F81127C08D
:102AC00060E0C6010E940D0885E0E82EE10EF601E7
:102AD00017AD191995EFF92EF10E2DEF722E740C1A
:102AE0001E5F272D2E0D012F4F2D672DC6010E9431
:102AF000DB07882309F4BFCF00E02E2D4F2D672D73
:102B0000C6010E943008F394F112F6CFB4CF0F90B3
:102B1000DF91CF911F910F91FF90EF90DF90CF90B9
:102B2000BF90AF909F908F907F905F904F9008954F
:102B3000EF92FF920F931F93CF93DF93E82E0091B4
:102B4000CB021091CC02F801D6AD8DEDF82EFD0E22
:102B5000C7AD6BE371E0C8010E94B60861E0C8012F
:102B60000E940D088091C902843071F447EF4C0F28
:102B700020EC31E06F2DC801DF91CF911F910F91B3
:102B8000FF90EF900C94DF1B8EE994E0F8019383A3
:102B900082832DE432E04EEF4C0F6F2DC8010E946E
:102BA000900A282FEE2059F047EF4C0F6CED6D0F77
:102BB00009E08091CB029091CC020E94F811DF9144
:102BC000CF911F910F91FF90EF9008950F931F9356
:102BD000CF93DF93182F062FC82FD0E4002341F0A6
:102BE000C150C7FD18C0C3FF07C0C07FC76008C081
:102BF0008C2F0E94C00DC82F1F3F11F0CC2339F03D
:102C00008C2F0E94E20C85FD04C0D15039F78FEF64
:102C100004C08C2F02C0C7E7F3CFDF91CF911F9183
:102C20000F910895EFECF2E090E49E0F80818F7D8C
:102C300081939E13FBCF0895CF92DF92FF920F9363
:102C40001F93CF93DF9300911E0310911F03F80190
:102C50001082F80180810E94E20CF80181838823B0
:102C600009F4A8C084FB992790F922812913A2C0F6
:102C70008F70833009F459C048F4813081F082307C
:102C800009F098C060E08CE891E092C0853009F4CA
:102C900054C008F44EC0863009F451C08BC0E09196
:102CA0001E03F0911F03C081F280F11002C0D0E139
:102CB00001C0D0EFDC0F8D2F887841F58D2F0E9459
:102CC000E20C8F7019F5CC2ED12C84E0D594C794EA
:102CD0008A95E1F78D2F0E94CB0DF11005C0CA94A3
:102CE000CD2859F08FE015C081E0F81211C0E6E060
:102CF000CE16D10469F4D05101C0D05F8D2F0E944F
:102D0000E20C8F7019F48D2F0E94CB0DFF2051F330
:102D100081EF8C0F0E942813F11002C081E101C0E5
:102D20008FEE8C0F0E94281345C061E085E991E089
:102D30003FC061E08AE991E03BC061E037C0E091CB
:102D40001E03F0911F03828143E06FEF811111C0D8
:102D500081E00E94F112882341F0E0911E03F0917E
:102D60001F03808182500E94CB0D42E061E082E02F
:102D700010C084E00E94F112882341F0E0911E030C
:102D8000F0911F03808182500E94CB0D42E061E0F0
:102D900088E00E94F112882341F0E0911E03F09137
:102DA0001F0380818E5F0E94CB0D60E08FE991E070
:102DB0000E944D13F80180810E94C00DF8018083AC
:102DC000811147CFDF91CF911F910F91FF90DF903D
:102DD000CF900895EF92FF920F931F93CF93DF93BD
:102DE0001F92CDB7DEB7182F862F69830E94E20CA1
:102DF000982F8F706981863039F481E080931403B5
:102E0000929591709093150369830E947B0C698160
:102E1000812F0E94ED0C8091CD0280FBEE24E0F822
:102E2000F12C970123533D4FF901EE5BFF4F9FEFCC
:102E300090838F5F8093CD0281E00E94CA0E0E9432
:102E40001C16E0911E03F0911F0383818F3F69F5EB
:102E50008091CD02182F117000E0802F0E94E20CAB
:102E6000982F9F709630D9F482958170181317C0EF
:102E7000802F0E94AB1281E0E12FE827F0E0E353BE
:102E8000FD4FE55BFF4F908180931403992319F068
:102E9000109315030AC082E08093150306C0802FAB
:102EA0000E94C00D082F8111D8CF0F90DF91CF91D4
:102EB0001F910F91FF90EF90089540911604262FD7
:102EC00030E0240F311D21323105DCF4209117044C
:102ED0002430C9F4FC0180E090E0861758F430916A
:102EE00016042191DC01AA50BC4FA30FB11D2C93F5
:102EF0000196F3CF80911604680F6093160480E06A
:102F0000089581E0089582E0089590E0FC013197F2
:102F1000EF30F105B0F5EA5AFF4F0C94762380911B
:102F200080008F7703C0809180008F7D8093800028
:102F3000089580918000877FF9CF84B58F7702C094
:102F400084B58F7D84BD0895809190008F7707C0F0
:102F5000809190008F7D03C080919000877F809347
:102F6000900008958091C0008F7703C08091C000C9
:102F70008F7D8093C00008958091C200877F8093E9
:102F8000C20008951F93CF93DF93282F30E0F901FB
:102F9000EF59F74F8491F901EE5BF74FD491F901A6
:102FA000ED5DF74FC491CC23C9F0162F81110E941B
:102FB0008517EC2FF0E0EE0FFF1FEB5EF74FA591AA
:102FC000B4918FB7F894111105C09C91ED2FE09545
:102FD000E92302C0EC91ED2BEC938FBFDF91CF91F1
:102FE0001F910895CF93DF9390E0FC01EE5BF74FC4
:102FF0002491FC01ED5DF74F8491882361F190E00D
:10300000880F991FFC01E95FF74FC591D491FC012E
:10301000EB5EF74FA591B491611109C09FB7F89489
:103020008881209582238883EC912E230BC0623007
:1030300061F49FB7F8943881822F80958323888329
:10304000EC912E2B2C939FBF06C08FB7F894E8818C
:103050002E2B28838FBFDF91CF91089508958FEF96
:103060009FEF08958FEF9FEF08958091C70390E041
:103070009195819591090895CF93DF9300D0CDB7B5
:10308000DEB7CB01642F49835A830E945D174981C3
:10309000842F5A81952F0F900F90DF91CF91089533
:1030A000CF93DF931F92CDB7DEB7698361E0CE0186
:1030B00001960E945D1781E090E00F90DF91CF9123
:1030C0000895CF92DF92EF92FF920F931F93CF93C9
:1030D000DF936C017A018B01C0E0D0E0CE15DF05F3
:1030E00089F0D8016D918D01D601ED91FC9101908F
:1030F000F081E02DC6010995892B11F47E0102C0F3
:103100002196ECCFC701DF91CF911F910F91FF90D6
:10311000EF90DF90CF900895CF93DF931F92CDB7BC
:10312000DEB76983DC01ED91FC910280F381E02D33
:1031300041E050E0BE016F5F7F4F09950F90DF9136
:10314000CF91089583E08093E9008091F200882375
:1031500019F08AE38093E8000895FC018485958541
:1031600097FD0BC09FB7F89482E08093E9008091AF
:10317000F2009FBF90E0019608959FB7F89482E017
:103180008093E9008091F2009FBF90E008950E9433
:103190009F1C90E00895CF93DF931F92CDB7DEB7C9
:1031A000FC018485958597FD05C02FEF3FEF35879E
:1031B00024870BC0CE0101960E94751C019719F45B
:1031C000898190E002C08FEF9FEF0F90DF91CF9148
:1031D00008950F931F93CF93DF931F92CDB7DEB760
:1031E0008C01FC018485958597FF0EC0CE01019668
:1031F0000E94751C019719F4298130E002C02FEF5D
:103200003FEFF80135872487F801848595850F9075
:10321000DF91CF911F910F910895CF92DF92EF929E
:10322000FF92CF93DF93EC01683109F456C038F474
:103230006431C9F0673109F0A6C0F9010DC06931E8
:1032400009F48EC0603209F09EC06AE497C00DB4E4
:1032500007FEFDCF8EB54150442309F492C0819101
:103260008EBD0000F4CFE881F981418169E40E94BC
:10327000CC06CFB7F8948091BA03811127C0E4E35C
:10328000F8E08491E3E5F8E09491E82FF0E0EE0FA8
:10329000FF1FE95FF74FA591B491EC91E92321F469
:1032A00061E081E10E94C21761E081E10E94F217B2
:1032B0008CB580618CBD8CB580648CBD61E08FE085
:1032C0000E94F21761E080E10E94F2178091BA0338
:1032D0008F5F8093BA03CFBF54C0A881B9811C9679
:1032E000EC911C97E150E33028F4F0E0E852FE4FF7
:1032F000808101C080E01896CD90DD90ED90FC902B
:103300001B9720E040E052E16AE770E0C416D50662
:10331000E606F70640F476956795579547952F5F33
:103320002630A1F727E091E092278C708065292F45
:103330002695822B91708CBD9DBDE881F9814081DD
:1033400069E4CE010E94CC06A881B981EA85FB859B
:1033500020E030E012964C916CE2CE01099511C04C
:10336000A881B981EA85FB8520E030E013964C9175
:103370006CE20995E881F981418169E4CE010E94FE
:10338000CC0681E001C080E0DF91CF91FF90EF900B
:10339000DF90CF900895CF93DF931F92CDB7DEB724
:1033A0006983BE016F5F7F4F0E94B01C0F90DF9159
:1033B000CF910895462FDC011896ED91FC91199755
:1033C00020E030E060E209948091BF0381110DC0DC
:1033D00082E08093BB0384E08093BC031092BE0321
:1033E0001092BD0381E08093BF038BEB93E00895BF
:1033F0008F929F92AF92BF92CF92DF92EF92FF9205
:103400006B017C010E945D064B015C01C114D1047B
:10341000E104F104F1F00E945D06DC01CB018819A2
:103420009909AA09BB09883E9340A105B10570F32B
:1034300021E0C21AD108E108F10888EE880E83E085
:10344000981EA11CB11CC114D104E104F10419F7A8
:10345000DDCFFF90EF90DF90CF90BF90AF909F9027
:103460008F9008958F929F92AF92BF92CF92DF92EA
:10347000EF92FF920F931F93CF93DF935C016B0149
:103480007A0180910C01882309F45BC080911904B2
:10349000882309F456C08091B90380FF05C080914C
:1034A000E00082608093E000E70110E00AEF83E033
:1034B000882E9AE3992E2097D9F10E949F1C8111A2
:1034C0000AC0015009F43DC061E070E080E090E086
:1034D0000E94F819F0CF282F30E0C217D3070CF460
:1034E0008C2F4FB7F8948092E9009091E80095FFF7
:1034F0001DC0282F30E0C21BD30BF601982F91502E
:1035000020F081918093F100FACFC20ED31E1123D7
:1035100019F09092E80009C08091E80085FD06C08E
:103520009092E80011E0209709F010E04FBFC3CF60
:103530001111C3CF5D9884E68093B8031E141F0455
:1035400044F081E090E0F5019383828380E090E095
:1035500001C0C701DF91CF911F910F91FF90EF90B4
:10356000DF90CF90BF90AF909F908F9008950F9372
:103570001F93CF93DF93EC01862F642F8C3270F46E
:103580008A3208F076C0883289F0893209F042C068
:1035900070E080E090E00E94F8196BC08D32D1F0AD
:1035A000C8F194EB980F923020F134C08E01055E83
:1035B0001F4FD0E0F80181918F018F3F39F0D0315A
:1035C00010F461E001C062E00E94F217DF5FD631C3
:1035D00089F74FC0433018F082E090E002C085E0E8
:1035E00090E0880F991F880F991F05970197F1F7B1
:1035F00040C08F73C80FD11D411107C061E08B8D92
:103600000E94F21760E08B8D11C062E08B8D0E94EA
:10361000F2172FC0803478F18F73FE01E80FF11D8F
:10362000238D2F3F31F1803120F4822F0E94C21769
:1036300020C030E0F901EF59F74F8491F901EE5BBA
:10364000F74F0491F901ED5DF74F1491112379F0D3
:1036500081110E948517E12FF0E0EE0FFF1FE75068
:10366000F84FA591B491EC91E02381E009F480E05A
:103670008E8B81E001C080E0DF91CF911F910F918F
:1036800008954091C5025091C6022091C302309125
:10369000C40242175307B4F49091E8009570E1F327
:1036A0009091E80092FD19C08093F1008091C502CD
:1036B0009091C60201968F739927892B19F48EEF8A
:1036C0008093E8008091C5029091C6020196909384
:1036D000C6028093C50281E0089580E0089561509C
:1036E00030F02091F100FC0120830196F8CF28985A
:1036F00084E680931804089585ED8093BC00809142
:10370000BC0084FDFCCF1092170408950E947C2316
:103710001F93CF93DF93D0E5CFEF11E010933404E4
:1037200040E06D2F8EE194E00E94CC06809134043D
:103730008170CC0FC82BDF5FD63581F780913704BD
:10374000803179F018F4882331F031C08032A1F053
:103750008033C1F02CC0809135048C1759F182E17F
:1037600027C0809135048C1303C01092370422C007
:10377000C093360482E21CC0809136048C13F5CFCE
:1037800080E316C0809135048C1314C01092370466
:103790002091360486E091E0C2278150292F2C2306
:1037A00021F4990F8111F9CF86E0805B04C081502C
:1037B0008093370480E0DF91CF911F9108952F927D
:1037C0003F924F925F926F927F928F929F92AF92B1
:1037D000BF92CF92DF92EF92FF920F931F93CF93FE
:1037E000DF9300D01F92CDB7DEB77C01162F742F68
:1037F000590188E0382E340E98E0592E560E032DCC
:10380000252DC7017B830E94DB077B81882309F478
:1038100056C0670181E7C80ED11C3701E0E76E0E84
:10382000711CF601408022242394270E022D252DA1
:10383000472F612FC7017B830E94DB077B81882391
:10384000C1F1512F450130E8F4018081832381F0DB
:10385000F601408200E021E0472F652FC7013A833F
:1038600059837B830E9401083A8159817B8116C06C
:10387000F3018081811112C081E0411080E0F601E6
:10388000808300E021E0472F652FC7013A835983E9
:103890007B830E9401087B8159813A815F5F369565
:1038A00021F4FFEF8F1A9F0A30E85511CDCFF601B2
:1038B0004082FFEFAF1ABF0A722D2310B2CF0F90D4
:1038C0000F900F90DF91CF911F910F91FF90EF908C
:1038D000DF90CF90BF90AF909F908F907F906F9030
:1038E0005F904F903F902F900895FC0180911904B4
:1038F000811103C08FEF9FEF08959FB7F89482E086
:103900008093E9002091F20030E01216130614F4BF
:1039100021E030E02115310559F0289884E68093A4
:1039200018048091F10080838091F200882319F0BF
:103930009FBFC90108958BE68093E800F9CF2FB7A8
:10394000F89483E08093E9009091E800892F8072D9
:1039500095FF04C09091F20080E4891B2FBF089569
:103960009B01DC011896ED91FC91199741E067E10C
:1039700009941F920F920FB60F9211242F933F9329
:103980004F935F936F937F938F939F93AF93BF9367
:10399000EF93FF938091B900887F803609F49CC033
:1039A00068F5883209F45BC090F4803109F454C0A2
:1039B00038F4882309F4F6C0883009F44DC0F6C005
:1039C000883109F44CC0803209F45DC0EFC0803406
:1039D00009F468C048F4803309F455C0883309F00D
:1039E000E5C08093BB04D8C0803509F44FC088354A
:1039F00009F45DC0883409F0D9C0D6C0883909F40B
:103A0000C7C0A8F4883709F467C038F4883609F4C9
:103A100063C0803709F460C0C9C0883809F4B8C0F1
:103A2000803909F45FC0803809F0C0C05BC0803BBA
:103A300009F486C038F4803A09F466C0883A09F47B
:103A40007FC0B4C0803C09F4A7C0883C09F4A4C07E
:103A5000883B09F48AC0AAC08091E00410C090910C
:103A6000DF048091DE04981770F5E091DF0481E0B7
:103A70008E0F8093DF04F0E0E254FB4F808180934F
:103A8000BB0085EC86C08093BB048EC0E091DF0450
:103A900081E08E0F8093DF048091BB00F0E0E25460
:103AA000FB4F80839091DF048091DE046EC0E09133
:103AB000DF0481E08E0F8093DF048091BB00F0E093
:103AC000E254FB4F80838091BD0481116DC081E081
:103AD0008093BC0484EA61C083E080931704109251
:103AE000BA04CFCF8091BA04803208F051C0E0917F
:103AF000BA0481E08E0F8093BA048091BB00F0E09D
:103B0000E656FB4F8083BDCF85EC8093BC001092BE
:103B100017048091BA04803230F4E091BA04F0E0E6
:103B2000E656FB4F10826091BA0470E0E091980471
:103B3000F09199048AE994E009951092BA0436C08C
:103B400084E0809317041092970410921604E09179
:103B50009504F0919604099580911604811105C091
:103B600081E0809316041092F603E091970481E0BF
:103B70008E0F80939704F0E0EA50FC4F8081809391
:103B8000BB009091970480911604981708F479CFA0
:103B900085E88093BC000AC085EC8093BC0010923D
:103BA000170404C01092BB040E947C1BFF91EF918C
:103BB000BF91AF919F918F917F916F915F914F9145
:103BC0003F912F910F900FBE0F901F901895CF929D
:103BD000DF92EF92FF920F931F93CF93DF931F9289
:103BE000CDB7DEB7182F062FE42E862F880F8E5FF5
:103BF00099830E94411B83E00E94411BF12EC12E3C
:103C00009981D92E8C2D8F19801798F4F601E7FE33
:103C100002C0849101C080810E94411B182F80E066
:103C20000E94411B8123FFEFCF1ADF0A8111EACFE7
:103C300001C081E00F90DF91CF911F910F91FF9014
:103C4000EF90DF90CF900895789484B5826084BD22
:103C500084B5816084BD85B5826085BD85B5816090
:103C600085BD80916E00816080936E00109281000E
:103C700080918100826080938100809181008160C9
:103C8000809381008091800081608093800080918A
:103C90009100826080939100809191008160809377
:103CA0009100809190008160809390008091C1008C
:103CB00084608093C1008091C10082608093C100C4
:103CC0008091C10081608093C1008091C3008160B8
:103CD0008093C3008091C00082608093C000809177
:103CE000C20081608093C20080917A0084608093DA
:103CF0007A0080917A00826080937A0080917A00C5
:103D0000816080937A0080917A00806880937A0045
:103D1000109219041092C8021092B9038091D70032
:103D200081608093D70080EA8093D80089B5806154
:103D300089BD89B5826089BD09B400FEFDCF61E00F
:103D400070E080E090E00E94F8198091D8008F7CAC
:103D500080618093D8008091E000807F8093E000B4
:103D60008091E1008E7E8093E1008DE08093E200FF
:103D7000559A209AEEEFFFE7859194918B3F9C4DE9
:103D800019F481E08093C70287E08093490483E1BE
:103D900080934A0484E180934B0482E180934D0434
:103DA00085E180934E0488E080934C04E0912204E6
:103DB000F091230420E030E040E06AE08EE194E0FE
:103DC00009958EE194E00E9499148EE194E00E949E
:103DD00060148111FACF60E08EE194E00E945414E7
:103DE000E0912204F091230420E030E040E06BE019
:103DF0008EE194E009958EE194E09093CC0280935B
:103E0000CB0280915D0481508093CA0281E080934F
:103E10008E0498E09093040180930D018093130326
:103E20000E94A90C89EE92E07C01EE0CFF1C87E059
:103E3000C82ED12C9EE9A92E94E0B92E8EE194E0F3
:103E40000E9499148091C902E091CB02F091CC02BA
:103E500081114BC08091CD02811102C082E001C06E
:103E600084E080930E0190910E019E5FC7AD8C2F70
:103E7000E9E09E9F801911248695C81B20E040E050
:103E800065E572E087EF8C0F0E940415C25120ECAB
:103E900031E041E060E08091CB029091CC020E9441
:103EA000DF1B20EC31E041E068E78091CB0290918C
:103EB000CC020E94DF1BD0E080910E01D81708F0E1
:103EC00021C2C95021E08091F303D81320E0ED2FE7
:103ED000F0E0EE0FFF1FE552FE4F6081718140E080
:103EE0008C2F0E940415DF5FE7CF61E0CF010E94B5
:103EF0000D08612C712CC62D862D8695869586958C
:103F00008601081B1109E3E0000F111FEA95E1F794
:103F1000095F1F4FD0E0C30183539D4F4C018D2F8C
:103F20008C2783FDA1C0909112038D2F86958695D5
:103F30008695911104C0F401E80FF11D05C0F80148
:103F4000E81BF109E353FD4F82818F7009F08CC0AB
:103F50004091CA024C1B552453945D0E652D8091EF
:103F6000CB029091CC020E9417084091CA024250A5
:103F70004C1B652D8091CB029091CC020E941708BA
:103F80004091CA0244504C1B652D8091CB02909108
:103F9000CC020E9417084091CA0246504C1B652D66
:103FA0008091CB029091CC020E9417084091CA02E6
:103FB0004C1BF3E05F2E5D0E652D8091CB0290913E
:103FC000CC020E9417084091CA0246504C1B652D36
:103FD0008091CB029091CC020E9417084091CA02B6
:103FE0004C1BA5E05A2E5D0E652D8091CB02909161
:103FF000CC020E9417084091CA0246504C1B652D06
:104000008091CB029091CC020E9417084091CA0285
:104010004C1BB7E05B2E5D0E652D8091CB0290911D
:10402000CC020E9417084091CA0242504C1B652DD9
:104030008091CB029091CC020E9417084091CA0255
:1040400044504C1B652D8091CB029091CC020E9474
:1040500017084091CA0246504C1B652D8091CB0237
:104060009091CC020E941708D85FD03409F057CF46
:10407000F8E06F0E711C20E46216710409F03BCF6A
:104080000DEC12E055245A944701801A910A612CD4
:10409000712C462C80911203811105C0F801E60DA8
:1040A000F71D328004C0F401E619F7093184C32DED
:1040B000CF7009F44AC0D0E0219773E0CC0FDD1F28
:1040C0007A95E1F761E08091CB029091CC020E9459
:1040D0000D0860910D01809104019E0128553E4F0D
:1040E0004091CA02460F589E400D11246150489ECF
:1040F000600D11248091CB029091CC020E94DF1BB5
:1041000034FA332430F88091130383111EC060E029
:104110008091CB029091CC020E940D0860910D011C
:10412000809104019E0127513E4F4091CA02460FE3
:10413000589E400D11246150489E600D11248091BD
:10414000CB029091CC020E94DF1B9FEF691A790A83
:10415000E8E06E16710409F09CCF5A94085F1F4F77
:10416000F7EF5F1291CF61E08091CB029091CC028A
:104170000E940D0880911001982F987819F461E041
:104180000E94AB1480910F01982F987819F460E089
:104190000E94AB147090CE0224E0271510F464E066
:1041A000762E6BE371E08091CB029091CC020E945D
:1041B000B60861E08091CB029091CC020E940D087C
:1041C00028E0522E612C39E0432E48E7242E5DE290
:1041D000352E671409F45FC0C091CE02C719C60D11
:1041E000D0E04C9EF0014D9EF00D1124ED5BFC4F94
:1041F000E081EF70D9F1E13059F0F0E0EF51FE4F7E
:1042000080818093EC039DEE892E93E0992E04C06B
:104210008CEE882E83E0982E4C9E80014D9E100DD2
:10422000112403531D4FF801E958FF4F6081C40169
:104230000E941C0CF801E758FF4F80818F708401A9
:104240000D5F1F4FF401811102C0328201C0228232
:104250004C9EF0014D9EF00D1124EB5BFC4F6081F4
:10426000C8010E941C0CF801329602C0ECEEF3E08B
:1042700010828091CB029091CC02FC0166AD63521A
:10428000B382A2822CEE33E0452D0E94900A639403
:10429000F8E05F0E9ECF8091C902823021F481E068
:1042A0009091100105C0833029F481E090910F01B5
:1042B0009F3F09F080E00E9498158091C9028530E7
:1042C00009F580911503E091CB02F091CC0288238F
:1042D00049F0813071F487AD869521E041E062E7D5
:1042E00072E00DC087AD869521E041E067E672E09F
:1042F00006C087AD869521E041E06DE772E082500F
:104300000E9404158091F503811104C00E94881B4E
:104310008093F5038EE194E00E946014811192CDA8
:104320008091F503811104C00E94881B8093F503DE
:104330008091F503853519F481E58093F50380912B
:10434000F503843519F482E58093F5038091F50334
:104350008093F403C091C902C23009F468C0A8F484
:10436000CC23E1F0C13009F0FFC00E94121680E0BA
:104370000E94CA0EC09317030E941C1660E08FEFC4
:104380000E94E61580931001B3C0C43009F4D0C078
:1043900008F487C0C53009F4E1C0E6C0813579F47E
:1043A0008091F303482F50E04F5F5F4F20910E0143
:1043B00030E0421753070CF0D7C08F5F08C082353A
:1043C00049F48091F303882309F4CEC0815080938F
:1043D000F303CAC0803509F0C7C0C091F303C1110F
:1043E00005C00E94A90C109212031BC0C13031F409
:1043F0000E94A90CC093120384E07EC0C23099F4DD
:104400008091CD02823068F00E94280C0E94280C16
:104410008091CD0282508093CD02811102C0109212
:10442000F30381E069C0C33009F09EC0FACF813543
:1044300019F46091120306C0823559F48091120379
:1044400061E0681B809110010E94E61580931001C5
:104450008BC0803509F088C0D0911001DF3F19F47E
:104460001092C90281C00E94121680E00E94CA0EFA
:1044700000911E0310911F038D2F0E94E20C829564
:104480008170F8018283D0931603C09317030E94B2
:104490001C1660E08FEF0E94E61580930F0183E009
:1044A0002BC0813519F4C091120306C08235A1F4E6
:1044B00080911203C1E0C81B6C2F80910F010E94F4
:1044C000E61580930F018F3F09F04EC06C2F0E94BC
:1044D000E61580930F0148C0833589F40E941216B7
:1044E00080E00E94CA0E81E0809317030E941C1690
:1044F0008FEF80930F0182E08093C90235C0803531
:1045000099F560910F01809110010E94EA16809147
:104510001403882311F085E001C084E08093C90270
:104520008FEF8093100180930F010E9412161CC020
:1045300082E00E94CA0E0E947B0C0E941C16E09131
:104540001E03F0911F03648183810E94EA1680910B
:104550001403882309F465CF85E0CECF882321F0AA
:104560001092C9020E94A90C1092F50361E070E05C
:1045700080E090E00E94F81980E090E0892B09F437
:104580005DCC0E9400005ACC1092E4041092E30427
:1045900088EE93E0A0E0B0E08093E5049093E60419
:1045A000A093E704B093E8042DE132E03093E204F5
:1045B0002093E1041092F0041092EF048093F10430
:1045C0009093F204A093F304B093F4048FE292E08A
:1045D0009093EE048093ED048FEF9FEF9093FA0495
:1045E0008093F90410921D0410921C048EE994E04B
:1045F00090939204809391041092930410929404E7
:104600001092330481E492E090931B0480931A0487
:1046100010921F0410921E0410922F041092320464
:104620008FEF8093300480933504E9E3F4E09FEF4B
:1046300086E18E0F91938E13FDCF82E297E09093E7
:104640002304809322048CEA95E0909325048093C0
:1046500024048DE099E1909327048093260487EB4E
:104660009AE1909329048093280420E030E040E010
:1046700069E08EE194E00E94220710926304109298
:1046800062048CE495E09093500480934F048DE392
:1046900095E0909354048093530481E080935504F3
:1046A0001092560410926F0410928E0480938F041F
:1046B0008093900489E492E0909352048093510493
:1046C0008EE194E00E9400058AEA95E090936504EB
:1046D00080936404109272048CE08093420484E01E
:1046E0008093430486E0809344040895EE0FFF1FF7
:1046F0000590F491E02D099481E090E0F8940C94F9
:104700008823DC0101C06D9341505040E0F70895CB
:04471000F894FFCF4B
:10471400FFFFFFFF0800E10000000000000104FFAC
:10472400FF1815A015C019FF1815A115C819FF18F1
:1047340015AE19FF1815AF19FF1815AE15D516804B
:1047440015A8163F15D316001540158D16141520FF
:10475400160015A115C815DA1612158116CF15D92C
:1047640016F115DB1640152E15A415A619FF000128
:10477400140A6464323200127A0000042896100885
:1047840000008000400000C18081000000000101A1
:104794000202010100000103030509000EF212EEFA
:1047A4001FE121DF000F11EFF1000110F0FF000104
:1047B40010F0FF0F11EFF1000000183C3C183C0012
:1047C400001C3E7E6E0E1F1F001C2E3E3E1C087FEA
:1047D40000557F3E3E3E3E7F00553E3E1C3E1C7FC4
:1047E400081C497F7F3E1C7F04080C87029802A99D
:1047F40002B3024E4252514B000000001818000050
:104804000000001C2C04040E0000001C1C1C0800EA
:10481400000000001C1C1C1C000000141C081C08C8
:1048240000000000083E1C08000000000050183C76
:1048340018950B2E18351832182F18000000008C0C
:1048440018321AC718A218AD18CB18E918000000BE
:1048540000980B6C0B950B940B0005A8044F707417
:10486400696F6E73004C6974746C6520526F6F6B62
:1048740020436865737300426C61636B2077696ED3
:10488400730057686974652077696E7300537461A7
:104894006C656D617465004E65772047616D6520B8
:1048A40028576869746529004E65772047616D65EE
:1048B4002028426C61636B2900556E646F204D6F34
:0A48C40076650052657475726E008F
:00000001FF
